:100000000C9462000C948A000C948A000C948A0070
:100010000C948A000C948A000C948A000C948A0038
:100020000C948A000C948A000C948A000C948A0028
:100030000C948A000C948A000C948A000C948A0018
:100040000C9412050C948A000C948A000C948A007B
:100050000C948A000C948A000C948A000C948A00F8
:100060000C945C050C948A0000000000240027001A
:100070002A000000000023002600290000000000E4
:10008000250028002B0004040404040404040202D4
:100090000202020203030303030301020408102007
:1000A0004080010204081020010204081020000012
:1000B0000008000201000003040700000000000027
:1000C0000000C00611241FBECFEFD8E0DEBFCDBFB9
:1000D00011E0A0E0B1E0ECE9F5E102C005900D927D
:1000E000AC37B107D9F722E0ACE7B1E001C01D920F
:1000F000A735B207E1F710E0C2E6D0E004C02197CF
:10010000FE010E94C60AC136D107C9F70E94E00667
:100110000C94CC0A0C94000090E0FC01E255FF4FD7
:100120002491FC01E656FF4F3491FC01EA57FF4F42
:10013000E491EE23C9F0222339F0233001F1A8F431
:10014000213019F1223029F1F0E0EE0FFF1FE458C1
:10015000FF4FA591B4918FB7F894EC91611126C02F
:1001600030953E233C938FBF08952730A9F0283067
:10017000C9F0243049F7809180008F7D03C08091C1
:1001800080008F7780938000DFCF84B58F7784BD28
:10019000DBCF84B58F7DFBCF8091B0008F778093CC
:1001A000B000D2CF8091B0008F7DF9CF3E2BDACF57
:1001B0003FB7F89480913B0290913C02A0913D02A0
:1001C000B0913E0226B5A89B05C02F3F19F00196BD
:1001D000A11DB11D3FBFBA2FA92F982F8827BC01A1
:1001E000CD01620F711D811D911D42E0660F771FC9
:1001F000881F991F4A95D1F708958F929F92AF92C9
:10020000BF92CF92DF92EF92FF924B015C010E946E
:10021000D8006B017C010E94D8006C197D098E0901
:100220009F09683E734081059105A8F321E0821A79
:100230009108A108B10888EEC80E83E0D81EE11C21
:10024000F11C81149104A104B10429F7FF90EF90EF
:10025000DF90CF90BF90AF909F908F9008950895BA
:100260000895AF92BF92CF92DF92EF92FF920F93D9
:100270001F93CF93DF936C017B018B01040F151F3C
:10028000EB015E01AE18BF08C017D10759F06991A4
:10029000D601ED91FC910190F081E02DC601099508
:1002A000892B79F7C501DF91CF911F910F91FF90B5
:1002B000EF90DF90CF90BF90AF9008952091E40130
:1002C000260F3327331F21323105ECF42091080229
:1002D000FC0190E080E0243069F082E00895A09174
:1002E000E4012191AC014C535E4FA40FB52FB11D19
:1002F0002C930196861798F38091E401680F609320
:10030000E40180E0089581E008951092080281E000
:1003100080930A021092090261E082E10E948C003F
:1003200061E083E10E948C00E9EBF0E080818E7F48
:10033000808380818D7F808388E48093B80085E40A
:100340008093BC000895CF93DF9391E09093C30115
:100350008823B9F0C091B800D091BA008091BC0058
:100360008A7B8093BC0060E082E10E948C0060E0A8
:1003700083E10E948C000E948501D093BA00C09353
:10038000B800DF91CF9108950895E09135028091F2
:100390003402E81730F4F0E0E256FE4F808190E03E
:1003A00008958FEF9FEF0895909135028091340268
:1003B0002FEF3FEF981748F4E92FF0E0E256FE4F99
:1003C000208130E09F5F90933502C90108958091AC
:1003D000340290913502891B990B0895CF92DF92D8
:1003E000EF92FF920F931F93CF93DF937C01CB018A
:1003F0008A0120919D01222389F0EB016B01C40E3B
:10040000D51ECC15DD0569F06991D701ED91FC9100
:100410000190F081E02DC7010995F3CF642F0E9470
:100420005E01C801DF91CF911F910F91FF90EF9076
:10043000DF90CF900895CF93DF931F92CDB7DEB7B3
:10044000698320919D012223F9F02091320220320C
:1004500058F021E030E0FC013383228390E080E01B
:100460000F90DF91CF91089580913302E82FF0E053
:10047000E358FE4F998190838F5F8093330280937E
:10048000320281E090E0ECCF61E0CE0101960E9463
:100490005E01F7CFCF92DF92EF92FF920F931F93FF
:1004A000CF93DF93FC01C48121E020939D01C09391
:1004B0007C0110923302109232028385682B8FE305
:1004C00092E00E941B02D0913202D13208F092C019
:1004D0000E94D8006B017C0180910802811165C0E7
:1004E00082E08093080281E080930A028FEF80937C
:1004F000070210922C02D0932B02ADE7B1E0EBE0A3
:10050000F2E080E0D81385C010922D0280912D0278
:10051000CC0FC82BC0932D0280910902813009F0C5
:100520007CC0109209020E94D8006B017C0180916E
:100530002D028093BB008091BF019091C001A091DA
:10054000C101B091C201892B8A2B8B2B99F00E949B
:10055000D8000091BF011091C0012091C1013091DC
:10056000C2016C197D098E099F0906171707280714
:100570003907E0F18091BC0083FDD9CF85EC8093F1
:10058000BC000E94D8006B017C018091080282307F
:1005900009F445C0809107028F3F61F18091070205
:1005A000803241F18091070225C08091BF01909176
:1005B000C001A091C101B091C201892B8A2B8B2B64
:1005C00009F48ACF0E94D8000091BF011091C001A8
:1005D0002091C1013091C2016C197D098E099F09DA
:1005E000061717072807390708F076CF8091BE0154
:1005F0000E94A301109233021092320210929D01C8
:10060000DF91CF911F910F91FF90EF90DF90CF90EE
:1006100008959D9191938F5F75CF85EEB0CF8091B6
:10062000BF019091C001A091C101B091C201892B7D
:100630008A2B8B2B09F4A9CF0E94D8000091BF010F
:100640001091C0012091C1013091C2016C197D0946
:100650008E099F09061717072807390708F095CF55
:10066000C5CF089590E080E00895FC01019000203E
:10067000E9F73197AF01481B590BBC018BE492E0BD
:100680000C9431018F929F92AF92BF920F931F9360
:10069000CF93DF93CDB7DEB7A1970FB6F894DEBF47
:1006A0000FBECDBF19A2423008F44AE08E010F5DA3
:1006B0001F4F842E912CB12CA12CA50194010E94D6
:1006C000A40AE62FB901CA01EA30F4F4E05DD801CA
:1006D000EE938D01232B242B252B79F790E080E0DE
:1006E000109719F0CD010E943503A1960FB6F8942A
:1006F000DEBF0FBECDBFDF91CF911F910F91BF9095
:10070000AF909F908F900895E95CE1CFCF93DF93F6
:100710000E943503EC0186E291E00E9435038C0FC4
:100720009D1FDF91CF9108950F931F93CF938C015D
:10073000C62F0E944A026C2F6460C8010E944A02C0
:100740006C2F6B7FC8010E944A0283EC90E00197F6
:10075000F1F7CF911F910F9108950F931F93CF93AE
:10076000DF938C01D62FC42F607F642B0E949403EB
:1007700080E1D89FB00111246C2BC801DF91CF918B
:100780001F910F910C949403CF93DF93CDB7DEB7F5
:1007900028970FB6F894DEBF0FBECDBF98E0E0E01B
:1007A000F1E0DE01119601900D929A95E1F790919A
:1007B0005302981710F48FEF890F90E0880F991F5C
:1007C00021E030E02C0F3D1F820F931FFC01608160
:1007D000606840E08BE492E028960FB6F894DEBFA4
:1007E0000FBECDBFDF91CF910C94AD0341E00E94CD
:1007F000AD0381E090E008954F925F926F927F92F7
:100800008F929F92AF92BF92CF92DF92EF92FF9220
:100810000F931F93CF936B017C01742EAC019B014E
:100820000E949F0A882399F089E291E0CF911F915D
:100830000F91FF90EF90DF90CF90BF90AF909F907F
:100840008F907F906F905F904F900C94350346018E
:100850005701E894B7F82FEF3FEF4FE75FE7C50187
:10086000B4010E949F0A81110DC02FEF3FEF4FE7A7
:100870005FE7C501B4010E94D50818161CF48DE28B
:1008800091E0D4CF2FEF3FEF4FE75FE4C701B60110
:100890000E942D0A18161CF481E391E0C7CF2FEFB8
:1008A0003FEF4FE75FECC701B6010E94D50887FD17
:1008B000F3CF20E030E0A901C701B6010E94D508BE
:1008C00010E000E087FF0CC041E06DE28BE492E0B5
:1008D0000E94AD03F7FAF094F7F8F09401E010E00D
:1008E000C0E060E070E080E09FE37C1641F020E033
:1008F00030E040E251E40E94DA08CF5FF6CFA70172
:1009000096010E9469084B015C010E944C092B0171
:100910003C014AE00E944203080F191FCC23C9F191
:10092000C301B2010E947B099B01AC01C501B40166
:100930000E9468084B015C0141E06EE28BE492E0AA
:100940000E94AD030F5F1F4FC15018F120E030E04F
:1009500040E251E4C501B4010E94320A2B013C017E
:100960000E944C094B01B12CA12C4AE0C501B401F5
:100970000E944203080F191FC501B4010E947B09A0
:100980009B01AC01C301B2010E9468084B015C01EC
:10099000DBCFC801CF911F910F91FF90EF90DF90B7
:1009A000CF90BF90AF909F908F907F906F905F900F
:1009B0004F90089585ED8093BC008091BF01909188
:1009C000C001A091C101B091C2010796A11DB11D46
:1009D00023E0B695A795979587952A95D1F720910D
:1009E000BC0024FD03C01092080208954091BF018D
:1009F0005091C0016091C1017091C201452B462BFD
:100A0000472B69F30097A105B10541F02AE22A9529
:100A1000F1F700C00197A109B109E1CF8091BE01B2
:100A20000C94A3011F920F920FB60F9211242F93D3
:100A30003F938F939F93AF93BF9380913702909191
:100A40003802A0913902B0913A023091360223E087
:100A5000230F2D3758F50196A11DB11D20933602A5
:100A60008093370290933802A0933902B0933A02F0
:100A700080913B0290913C02A0913D02B0913E02D8
:100A80000196A11DB11D80933B0290933C02A0935F
:100A90003D02B0933E02BF91AF919F918F913F91E4
:100AA0002F910F900FBE0F901F90189526E8230FDF
:100AB0000296A11DB11DD2CF1F920F920FB60F92B9
:100AC00011242F933F934F935F936F937F938F9353
:100AD0009F93AF93BF93EF93FF938091B900887F6B
:100AE000803609F44AC0F0F5883209F4A7C018F539
:100AF000803109F49BC0B8F4882309F4F9C0883028
:100B000009F494C0FF91EF91BF91AF919F918F91A4
:100B10007F916F915F914F913F912F910F900FBEF9
:100B20000F901F901895883109F488C0803251F7D2
:100B30008093070214C0803409F49DC040F48033D0
:100B4000B9F38833F9F68093070285ECB0C080359D
:100B500009F485C0883509F496C0883499F60E9456
:100B6000DA04D0CF883909F48CC038F5883729F0F9
:100B700050F4883611F0803729F683E0809308021C
:100B80001092060257C0883809F47BC0803919F0EA
:100B9000803809F0B7CF80910602803208F071C02A
:100BA000E091060281E08E0F809306028091BB00E7
:100BB000F0E0EA51FE4F80833DC0803B39F0E0F425
:100BC000803A09F479C0883A09F09CCF84E0809398
:100BD00008021092E5011092E401E0913002F091D8
:100BE000310209958091E40181110FC081E0809369
:100BF000E4011092C40109C0803C09F4A6CF883CEE
:100C000009F4A3CF883B09F07DCFE091E50181E0B5
:100C10008E0F8093E501F0E0EC53FE4F80818093CE
:100C2000BB009091E5018091E40129C080912D02E3
:100C30008093BB0085EC8093BC0064CF90912C0224
:100C400080912B02981758F5E0912C0281E08E0FCD
:100C500080932C02F0E0E55FFD4F8081E9CFE091C9
:100C60002C0281E08E0F80932C028091BB00F0E07B
:100C7000E55FFD4F808390912C0280912B029817A5
:100C8000C8F285E8D8CFE0912C0281E08E0F8093E6
:100C90002C028091BB00F0E0E55FFD4F80838091E6
:100CA0000A0281115CCF81E08093090284EA80937B
:100CB000BC001092080226CF85EC8093BC001092F5
:100CC000080280910602803230F4E0910602F0E0E2
:100CD000EA51FE4F10826091060270E0E0912E0210
:100CE000F0912F0286EE91E00995109206020ACF4C
:100CF0001092070234CFCF92DF92EF92FF920F93C0
:100D00001F93E82FF92F05C001501109210931095E
:100D100061F1908196239417B9F305C00150110930
:100D20002109310911F1908196239413F7CFC12C39
:100D3000D12CE12CF12C0AC08FEFC81AD80AE80A8E
:100D4000F80A0C151D052E053F0579F080818623D4
:100D5000841791F36C2D7D2D8E2D9F2D1F910F915A
:100D6000FF90EF90DF90CF90089560E070E080E01A
:100D700090E01F910F91FF90EF90DF90CF9008953A
:100D8000EFE3F2E01382128288EE93E0A0E0B0E09D
:100D900084839583A683B7838CE091E091838083DD
:100DA000EBE4F2E0138212828EE191E09183808382
:100DB00080E2848384E1818784E0828713860895BA
:100DC000789484B5826084BD84B5816084BD85B526
:100DD000826085BD85B5816085BD80916E00816032
:100DE00080936E00109281008091810082608093D8
:100DF00081008091810081608093810080918000DA
:100E00008160809380008091B10084608093B10004
:100E10008091B00081608093B00080917A008460FE
:100E200080937A0080917A00826080937A0080912A
:100E30007A00816080937A0080917A008068809344
:100E40007A001092C1001092350210923402109272
:100E50003302109232020E9485018FE291E090935A
:100E600031028093300280E391E090932F028093CF
:100E70002E021092500280915502823018F098E0B4
:100E8000909350028093530262E370E080E090E020
:100E90000E94FD00609156028BE492E00E944A029B
:100EA00068EE73E080E090E00E94FD0060E38BE478
:100EB00092E00E949403CBE4D6E4CE010197F1F7CF
:100EC00060E38BE492E00E9494032197F1F760E3E2
:100ED0008BE492E00E94940383E592E00197F1F79E
:100EE00060E28BE492E00E949403609150026062A1
:100EF00040E08BE492E00E94AD0384E080935102D5
:100F000040E06CE08BE492E00E94AD0340E061E0E1
:100F10008BE492E00E94AD03CBE3DFE1CE010197C9
:100F2000F1F782E08093520240E066E08BE492E0C9
:100F30000E94AD0340E062E08BE492E00E94AD03CA
:100F40002197F1F780E00E94C40385E391E00E94BD
:100F5000860381E00E94C40388E491E00E94860336
:100F6000E1EAF0E02491EDE8F0E08491882399F043
:100F700090E0880F991FFC01E859FF4FA591B491AB
:100F8000FC01E458FF4F859194918FB7F894EC9150
:100F9000E22BEC938FBFC0EAD0E0FE0124915CE825
:100FA000E52E50E0F52EF70184918823C9F090E0FA
:100FB000880F991FFC01E859FF4FA591B491FC01DE
:100FC000E458FF4F459154913FB7F8949C91822F7C
:100FD000809598239C93FA019081892380833FBF59
:100FE00093E2C92ED12C23E0A22EB12C30E0832E27
:100FF00030E0932E61E087E00E948C00C6010197EB
:10100000F1F760E087E00E948C00C5010197F1F7DD
:10101000FE016491F7018491E82FF0E0EE0FFF1FCD
:10102000EE58FF4F8591949100E412E42FE030E0F8
:10103000462F0E947B06611571058105910529F0F7
:101040006F5F7F4F8F4F9F4F9F700E947D092CEAEB
:1010500035EC47E257E30E94320A2DEC3CEC4CECB5
:101060005DE30E94320A2B013C0182E00E94C4032E
:101070008CE591E00E94350342E0C301B2010E9479
:10108000FC0388E691E00E94860383E00E94C4038B
:101090008DE691E00E94350320E030E84BEA53E40E
:1010A000C301B2010E94320A20E030E040E05FE379
:1010B0000E94320A42E00E94FC0389E791E00E940C
:1010C00086038114910409F495CF0E94000092CF09
:1010D0005058BB27AA270E9480080C94F3090E944D
:1010E000E50938F00E94EC0920F039F49F3F19F42B
:1010F00026F40C94E2090EF4E095E7FB0C94DC096D
:10110000E92F0E94040A58F3BA176207730784078D
:10111000950720F079F4A6F50C94260A0EF4E095D4
:101120000B2EBA2FA02D0B01B90190010C01CA01A1
:10113000A0011124FF27591B99F0593F50F4503E4C
:1011400068F11A16F040A22F232F342F4427585F3E
:10115000F3CF469537952795A795F0405395C9F756
:101160007EF41F16BA0B620B730B840BBAF091500E
:10117000A1F0FF0FBB1F661F771F881FC2F70EC0AD
:10118000BA0F621F731F841F48F487957795679580
:10119000B795F7959E3F08F0B0CF9395880F08F06C
:1011A0009927EE0F9795879508950E94B80908F43E
:1011B00081E008950E94EE080C94F3090E94EC0966
:1011C00058F00E94E50940F029F45F3F29F00C94A3
:1011D000DC0951110C94270A0C94E2090E94040ABC
:1011E00068F39923B1F3552391F3951B550BBB2756
:1011F000AA2762177307840738F09F5F5F4F220F9B
:10120000331F441FAA1FA9F335D00E2E3AF0E0E891
:1012100032D091505040E695001CCAF72BD0FE2FDB
:1012200029D0660F771F881FBB1F2617370748076F
:10123000AB07B0E809F0BB0B802DBF01FF27935827
:101240005F4F3AF09E3F510578F00C94DC090C9406
:10125000270A5F3FE4F3983ED4F386957795679528
:10126000B795F7959F5FC9F7880F911D969587955C
:1012700097F90895E1E0660F771F881FBB1F62177B
:1012800073078407BA0720F0621B730B840BBA0B39
:10129000EE1F88F7E09508950E940C0A88F09F578A
:1012A00098F0B92F9927B751B0F0E1F0660F771F8A
:1012B000881F991F1AF0BA95C9F714C0B13091F080
:1012C0000E94260AB1E008950C94260A672F782F11
:1012D0008827B85F39F0B93FCCF386957795679545
:1012E000B395D9F73EF490958095709561957F4FB1
:1012F0008F4F9F4F0895E89409C097FB3EF4909557
:101300008095709561957F4F8F4F9F4F9923A9F0DE
:10131000F92F96E9BB279395F6958795779567956D
:10132000B795F111F8CFFAF4BB0F11F460FF1BC0B1
:101330006F5F7F4F8F4F9F4F16C0882311F096E944
:1013400011C0772321F09EE8872F762F05C06623F2
:1013500071F096E8862F70E060E02AF09A95660FAB
:10136000771F881FDAF7880F9695879597F9089564
:10137000990F0008550FAA0BE0E8FEEF16161706A6
:10138000E807F907C0F012161306E407F50798F00E
:10139000621B730B840B950B39F40A2661F0232B27
:1013A000242B252B21F408950A2609F4A140A695A3
:1013B0008FEF811D811D089597F99F6780E870E088
:1013C00060E008959FEF80EC089500240A941616BB
:1013D000170618060906089500240A941216130623
:1013E000140605060895092E0394000C11F48823B1
:1013F00052F0BB0F40F4BF2B11F460FF04C06F5FCD
:101400007F4F8F4F9F4F089557FD9058440F551FA2
:1014100059F05F3F71F04795880F97FB991F61F076
:101420009F3F79F087950895121613061406551FED
:10143000F2CF4695F1DF08C0161617061806991F59
:10144000F1CF86957105610508940895E894BB274E
:1014500066277727CB0197F908950E94B80908F409
:101460008FEF08950E94450A0C94F3090E94E50944
:1014700038F00E94EC0920F0952311F00C94DC095F
:101480000C94E20911240C94270A0E94040A70F3B8
:10149000959FC1F3950F50E0551F629FF001729F19
:1014A000BB27F00DB11D639FAA27F00DB11DAA1F28
:1014B000649F6627B00DA11D661F829F2227B00D75
:1014C000A11D621F739FB00DA11D621F839FA00D00
:1014D000611D221F749F3327A00D611D231F849F50
:1014E000600D211D822F762F6A2F11249F575040A7
:1014F0009AF0F1F088234AF0EE0FFF1FBB1F661F22
:10150000771F881F91505040A9F79E3F510580F0EA
:101510000C94DC090C94270A5F3FE4F3983ED4F363
:10152000869577956795B795F795E7959F5FC1F78E
:10153000FE2B880F911D9695879597F908950E9427
:10154000B809880B990B0895A1E21A2EAA1BBB1BA0
:10155000FD010DC0AA1FBB1FEE1FFF1FA217B3077F
:10156000E407F50720F0A21BB30BE40BF50B661F95
:10157000771F881F991F1A9469F760957095809559
:1015800090959B01AC01BD01CF010895EE0FFF1FA7
:0C1590000590F491E02D0994F894FFCF31
:10159C000000400014005400000000001B02EE018B
:1015AC003203C401E701D401C50100000000F603B9
:1015BC003101320331030D0A006E616E00696E66F3
:1015CC00006F766600554C545241534F4E494320A0
:1015DC0053454E534F522E004D4144452042592005
:1015EC002D59414849412E42534B2D0044555241EF
:1015FC0054494F4E203D2000206D2F730044495319
:0C160C0054414E4345203D2000206D005D
:00000001FF
